:10000000482000208D0600008906000089060000B7
:1000100000000000000000000000000000000000E0
:100020000000000000000000000000008906000041
:1000300000000000000000008906000089060000A2
:100040008906000089060000890600008906000074
:100050008906000089060000890600008906000064
:100060008906000089060000890600008906000054
:100070008906000089060000890600008906000044
:100080008906000089060000890600008906000034
:100090008906000000000000000000008906000042
:1000A0008906000089060000890600008906000014
:1000B0000000000010B5064C2378002B07D1054B3B
:1000C000002B02D0044800E000BF0123237010BDC4
:1000D0000C0000200000000080090000084B10B553
:1000E000002B03D00749084800E000BF0748036819
:1000F000002B00D110BD064B002BFBD09847F9E731
:1001000000000000100000208009000080090000AD
:100110000000000070B50020084B98470500084C0F
:10012000FA218900A047074B186007492800A0471B
:10013000064B18600522064B1A6070BD21050000B1
:10014000B90700000000002040420F00040000201A
:1001500010E000E030B5084B1C68084A00258021FB
:100160004902013807D3002CFBD054609560136816
:100170000B42FCD0F5E730BD0000002010E000E0AD
:10018000704700000C4B1B68002B06D1EFF3108367
:10019000002B07D00022094B1A70074A136801335D
:1001A0001360704772B6BFF35F8F0022044B1A7062
:1001B0000132024B1A70F0E7280000202C000020CA
:1001C00008000020084B1A68013A1A601B68002BCF
:1001D00009D1064B1B78002B05D00122044B1A7065
:1001E000BFF35F8F62B67047280000202C0000200C
:1001F0000800002010B5082803D880001B4B1B58AE
:100200009F46002030E01A4B18692DE0194B1B6AFD
:100210009B059B0F1848D84026E0154B586923E0F2
:10022000134B1B6800209B071ED512491022CB6878
:100230001A42FCD00E4B1B685B0701D40F4813E039
:1002400000200F4B98470A4B9B681B041B0C58431C
:100250000AE05023074AD35C00205B0704D5044B17
:10026000D86801E08020000210BDC04618090000D7
:10027000300000200008004000127A00006CDC0210
:100280002506000070B50C490B6A04788578407823
:100290000122104080014026B34303432A40D2018B
:1002A0008020834313430322224012020348034069
:1002B00013430B6270BDC04600080040FFFCFFFF07
:1002C000082803D88000254B1B589F46172044E080
:1002D000234A136A02210B43136200203DE0204AA7
:1002E000936902210B439361002036E01C4A138A74
:1002F00002210B43138200202FE0194A938A022126
:100300000B439382002028E016490B680222134316
:100310000B60134B9A8419000E32CB681A42FCD042
:10032000104A91680E4BD96252689A6200229A84F0
:1003300019001032CB681A42FCD00A4B1B689BB2E2
:10034000074A9384002008E0054944228B5C022080
:1003500003438B54002000E0002070473C0900005C
:10036000000800403000002030B585B0C222D20025
:100370001A4B9A601A4A53681E218B43536001231B
:100380006A4613700024174DE0B26946A84701344D
:10039000252CF9D103A80024447001258570047030
:1003A000114B98470620114B9847114B9847114B1A
:1003B0001C725C729C72DC7201956B465C70062349
:1003C0006A46137014725472694600200A4B9847AB
:1003D00000200A4B984705B030BDC04600080040D9
:1003E000004000410906000085020000C102000033
:1003F000010400000004004025040000DD040000AA
:10040000064A936908210B4393610122044B1A7039
:1004100019000B781342FCD17047C046000400401D
:10042000000C004070B5060004000D782D02054355
:100430004B78002B02D08023DB021D434B7A002B2C
:1004400002D080231B031D434868012810D9431E96
:10045000184234D1022830D90223002201325B0035
:100460009842FBD812023243140080235B031D43E1
:100470000B7A002B02D080239B031D43134A537831
:100480005BB2002BFBDB124B9847124B1E700F4ADE
:1004900053785BB2002BFBDB0C4B9C601A0053784B
:1004A0005BB2002BFBDB094A5368802149020B40F9
:1004B0001D435560084B984770BD0022D2E70402E7
:1004C000344380239B021D43D2E7C046000C00400A
:1004D00085010000080C0040C501000010B50400B3
:1004E0000B4A53785BB2002BFBDB0A4B98470A4B55
:1004F0001C70074A53785BB2002BFBDB044A51683F
:1005000080235B020B435360044B984710BDC046E9
:10051000000C004085010000040C0040C5010000F3
:1005200070B504001A4A53785BB2002BFBDB194B01
:100530009847194B1C70164A53785BB2002BFBDBB3
:10054000134E7068C004C00E144B98470500124B40
:100550001C707668F602F60F114B1C700C4A53782B
:100560005BB2002BFBDB0A4B9C682402240C0D4B76
:100570009847002E07D1012C07D9210028000A4BEB
:100580009847050001E00134E540280070BDC046F1
:10059000000C004085010000040C0040F501000043
:1005A000080C0040C5010000B907000010B50400A8
:1005B0000F4B98470F4B1C700F4A53881B05180FA1
:1005C00053880E490B40538053880D490B4053808C
:1005D00011008022D2014B881342FCD106494A887F
:1005E00003020648024013434B80064B984710BD58
:1005F00085010000020C0040000C0040FFF0FFFFEE
:10060000FFBFFFFFC501000010B50C7824020443B2
:10061000024B9847A4B2024B5C8010BDAD050000B0
:10062000000C004010B50400064B9847064B1C70A8
:10063000064B5C882405240F054B98472000054B8A
:10064000984710BD85010000020C0040000C0040DE
:10065000C5010000210500007047000010B5054BE2
:100660009847054B9847054B9847054B9847054BCE
:10067000984710BD69030000810100005906000081
:100680005906000059060000FEE70000F8B52A4AA6
:100690002A4B9A4211D01A00294B9A420DD2294A6C
:1006A00003339B1A9B0801339B00002223482249F5
:1006B0008C58845004329A42FAD1234A234B9A42EE
:1006C0000AD2D34321495B1803218B4304339B187F
:1006D000002102C29342FCD11D4AFF211D4B8B43D6
:1006E0009360FD3990235B001B4AD1501B4AD3789D
:1006F0000325AB4302242343D370D3780C27BB4399
:1007000008263343D370164B987B30229043202227
:1007100010439873997BB943314399739A7BAA43E9
:1007200022439A730F4A536880210B4353600E4B48
:1007300098470E4B9847FEE7800900000000002014
:100740000C000020040000200C00002048000020C5
:1007500000ED00E00000000000700041005000418A
:100760000048004100400041D1080000710700002E
:10077000F8B50C4B98470C4B98470C4B08221A6065
:10078000802212051A600A4E08270A4D3760FA24A3
:10079000A4002000A84780231B0533602000A84741
:1007A000F4E7C0465D060000150100000844004162
:1007B0001C44004155010000002243088B4274D3C1
:1007C00003098B425FD3030A8B4244D3030B8B4252
:1007D00028D3030C8B420DD3FF22090212BA030C5B
:1007E0008B4202D31212090265D0030B8B4219D33C
:1007F00000E0090AC30B8B4201D3CB03C01A52415C
:10080000830B8B4201D38B03C01A5241430B8B42A3
:1008100001D34B03C01A5241030B8B4201D30B038C
:10082000C01A5241C30A8B4201D3CB02C01A5241B3
:10083000830A8B4201D38B02C01A5241430A8B4276
:1008400001D34B02C01A5241030A8B4201D30B025F
:10085000C01A5241CDD2C3098B4201D3CB01C01A79
:10086000524183098B4201D38B01C01A5241430983
:100870008B4201D34B01C01A524103098B4201D371
:100880000B01C01A5241C3088B4201D3CB00C01ADE
:10089000524183088B4201D38B00C01A5241430856
:1008A0008B4201D34B00C01A5241411A00D201467B
:1008B000524110467047FFE701B5002000F006F8EE
:1008C00002BDC0460029F7D076E770477047C046A2
:1008D00070B500260C4D0D4C641BA410A64209D126
:1008E000002600F03DF80A4D0A4C641BA410A642F5
:1008F00005D170BDB300EB5898470136EEE7B30061
:10090000EB5898470136F2E76C0900006C090000CB
:100910006C090000700900000602000002020000DD
:100920000202000064020000640200001A020000DB
:100930000C0200002002000052020000EC02000045
:10094000CC020000CC02000058030000DE020000D0
:10095000FA020000D0020000080300004803000073
:10096000F8B5C046F8BC08BC9E467047DD000000E4
:10097000F8B5C046F8BC08BC9E467047B5000000FC
:0C098000401F0000080000000100000003
:040000030000068D66
:00000001FF
