:1000000080220020E1120000DD120000DD1200005D
:1000100000000000000000000000000000000000E0
:10002000000000000000000000000000DD120000E1
:100030000000000000000000DD120000DD120000E2
:10004000DD120000DD120000DD120000DD120000F4
:10005000C90D0000DD120000DD12000001080000E3
:10006000DD12000099010000A9010000B9010000A3
:10007000C9010000D9010000E9010000D10700001A
:10008000E1070000F1070000DD120000DD120000B2
:10009000DD1200000000000000000000DD12000082
:1000A000DD120000DD120000DD120000DD12000094
:1000B0000000000010B5064C2378002B07D1054B3B
:1000C000002B02D0044800E000BF0123237010BDC4
:1000D00004000020000000006C150000084B10B563
:1000E000002B03D00749084800E000BF0748036819
:1000F000002B00D110BD064B002BFBD09847F9E731
:1001000000000000080000206C1500006C150000C5
:1001100000000000044A137802210B431370537847
:100120005BB2002BFBDB70470018004000B583B0CA
:10013000124A936940210B43936101A900230B707C
:1001400005200F4B984705200E4B98470E4A137811
:1001500001210B43137053785BB2002BFBDB0B4B7D
:1001600019004031002204C39942FCD11022084BEF
:100170001A60084B984703B000BDC0460004004019
:10018000B91100002D11000000180040740000207B
:1001900000E100E01501000010B5024B1B680020D3
:1001A000984710BD2000002010B5024B5B6801206D
:1001B000984710BD2000002010B5024B9B6802201C
:1001C000984710BD2000002010B5024BDB680320CB
:1001D000984710BD2000002010B5024B1B69042079
:1001E000984710BD2000002010B5024B5B69052028
:1001F000984710BD20000020094B98420CD0094BB5
:10020000984207D0084A0023904201D01800704756
:10021000023302E0012300E00023DBB2F6E7C04630
:1002200000200042002400420028004210B50400D3
:1002300008004F4B98470023236080004D4A8258A6
:100240006260A372E372237363722372E3612362B9
:100250006362A36223756375A375E3752376637682
:1002600023746374A374E3742C22A3540132A35443
:100270000132A3540132A3540132A3540132A354D6
:100280000132A3540132A3540132A3540132A354C6
:100290000132A3540132A3540132A3540132A354B6
:1002A0000132A3540132A3540132A3540132A354A6
:1002B0000132A3540132A3540132A3540132A35496
:1002C0000132A3540132A3540132A3540132A35486
:1002D0000132A3540132A3540132A3540132A35476
:1002E0000132A3540132A3540132A3540132A35466
:1002F0000132A3540132A3540132A3540132A35456
:100300000132A3540132A3540132A3540132A35445
:100310000132A3540132A3544132A354A365A3670D
:100320000132A354E365E3670132A35423661A3A0A
:10033000A3501B32A3546366173AA3501832A35438
:10034000A366143AA3501532A354E366113AA3509E
:100350001232A35423670E3AA3500F32A35463679B
:100360000B3AA35001210C32A1540132A35410BD09
:10037000F9010000D8140000F0B5DE4657464E469D
:100380004546E0B591B001900C0015000800C34B44
:10039000984703000100C248026A9E00C14FF75906
:1003A0003A43026222681C20920706D511B03CBC79
:1003B00090469946A246AB46F0BD226801271740F9
:1003C000F4D1B948325817202E68B242EED36E6885
:1003D000B242EBD3E869824200D2B9E1286A824294
:1003E00000D2B7E1686A824200D2B5E1A86A8242CF
:1003F00000D2B3E198229446AC44624608920020B1
:1004000003E001300132082808D01678002EF8D019
:10041000A64E765C8642F4DC1720C7E700220292E3
:1004200080204004844602E00132042A0ED0A8183D
:10043000007C0128F8D19E48405C904200DA8FE1B0
:1004400060469040029E06430296EDE79D32AA5C0C
:10045000002A04D0802212010299114302912A7AC3
:10046000511E8A41920006926A7A012A22D0904A4D
:10047000D25C110005923522AA5C8A4200D379E150
:100480002C21695C0F2900D974E1287B0A90E87A55
:100490000B902D208246AA44002004970EAE0796AA
:1004A000C0263601B1468446A04628005546099329
:1004B000824635E0069911430691D8E792024F46ED
:1004C0003A400A4319798B4603215F4639400A4373
:1004D00016435A79520160210A4032439979090240
:1004E000C026B6000E401643DA791203E021C90196
:1004F0000A4016433443039A144320436246079943
:100500005050042A2AD09A7C0599914200D831E1B2
:10051000597A0A3504239B46DC440F2900D929E186
:100520000906F0231B0519402B002E783604FF2006
:100530000004064068788024002800D1049C987844
:1005400008270397002801D104980390D8788346A0
:1005500010205F46002FB1D10498AFE744465546BE
:10056000099B524AD25C9146514650315046413027
:10057000002700220126B2460226FF36B346802617
:100580007602B046A4461C004B460FE00678002ECB
:1005900007D0934200D8E7E0022E14D0564696408A
:1005A0003743013201310230082A10D00E78002E74
:1005B000ECD0934200D8D5E04646964037430678C3
:1005C000002EE9D1EDE75E4696403743E9E79946CC
:1005D000230064466A7E120130211140287E0722E2
:1005E000024011430022802040020E0002E001324E
:1005F000042A0BD0A918097D0029F8D00599914249
:1006000000DCB3E0010091400E43F0E7B2460198F0
:10061000020004323430002102C28242FCD10022A6
:100620000198426382639900224A88500460A022A4
:10063000A95C643A81540DA9AA7A0A701E4AD65C54
:1006400030001E4B984730001D4B98474B46002BFF
:100650003CDD2E00583698339846A844012399462D
:10066000AB464546A046089C03E001340436AC4244
:100670002AD02378002BF8D00CAB4A469A7000237E
:100680000CAAD37013002022B21812781A704A46AE
:100690005A70307819000B4B9847E6E7F9010000D3
:1006A00000040040C4140000D8140000E41400004A
:1006B000D0140000B4000020D4140000B9110000D0
:1006C0002D1100007D12000044465D460A9B1B036D
:1006D0000B9A12021343029A134323600422A36865
:1006E0001A42FCD1FF2323710422A3681A42FCD1D1
:1006F0006B461B7E63710E9BE3600F9B2361A761BA
:100700001D4AA3681342FCD15346E3631022A36839
:100710001A42FCD12B686363184AA3681342FCD1C8
:100720006B6823640598002822DD1C350021144ED7
:1007300032008A40A3681A42FCD104CD0B0010336A
:100740009B00E3185A6001318842F1DC00202DE65D
:1007500017202BE6172029E6172027E6172025E685
:10076000172023E6172021E617201FE617201DE695
:1007700000201BE6172019E640000200800004005C
:1007800000010800F0B5C64600B580000E4BC75802
:100790003B68DE6ABB6B7A6B13401E4000240B4B38
:1007A000984602E00434302C0AD04346E5583542DE
:1007B000F8D03B195B68380098473B68DD62F1E789
:1007C00004BC9046F0BDC046B4000020E814000010
:1007D00010B50020014B984710BDC04685070000AA
:1007E00010B50120014B984710BDC0468507000099
:1007F00010B50220014B984710BDC0468507000088
:10080000F0B5DE4657464E464546E0B583B0C24B8E
:100810001F683D682B78DB0914D12E8CB6B2002EF0
:1008200000D0A9E1AE8BB6B2AB235B00FB5AAA2283
:100830005200BD5A1D4035400024B84FB64B994672
:10084000984684E12B8C9BB2002B00D1DEE0288CF3
:1008500080B2B34B984704001F2800D9D6E00300AC
:1008600008335B01ED18ED79EDB2AB0741D0AD4A2D
:1008700001238340116899431160030008335B0131
:100880003A68944663440322DA713B18AE331B780E
:10089000DB072ED5A44B18703A68030008335B01C0
:1008A0009B5C9B079B0F012B00D181E042019F4B7A
:1008B0009B185A681201920C90B29B494A805A6860
:1008C0009204920C8A805A6899490A405A6000281A
:1008D00007D16201954B9B185B689B049B0C924A65
:1008E00053808D4B1868A31C1B01C3185B688E498D
:1008F00098476B070ED58B4A0123A3401168994393
:100900001160854B1B681B682200083252019B183E
:100910000422DA712B0714D5824A0123A3401168FF
:10092000994311607C4B1868230008335B0102680F
:10093000944663440822DA710319AE331B789B078F
:1009400047D4EB0614D5774A0123A3401168994395
:100950001160714B1868230008335B0102689446EC
:1009600063441022DA710319AE331B785B073ED45F
:10097000AB0600D4B0E06B4A0123A3401168994351
:100980001160654B1868230008335B0102689446C8
:1009900063442022DA710319AE331B781B0700D49D
:1009A0009AE061490C7024010419236B984793E085
:1009B00042015E4B9B185A689204920C5A494A8035
:1009C0005A681201920C8A805A68920B92035A60FC
:1009D00087E755490C706201544B9B18DB891F2235
:1009E00013404B702301C3189B6A9847A9E74E49EF
:1009F0000C7062014D4B9B185B681B019B0C4B807C
:100A00002301C318DB6A00219847B1E7AC8BA4B27D
:100A1000630705D50423AB83A133FB5CDB0762D4FA
:100A200023070BD500223F4B1A603B4B1868082365
:100A3000026893839D33C35C9B0758D4630608D533
:100A4000354B18684023026893836533C35CDB062B
:100A500050D4A30608D5304B18682023026893832E
:100A60008533C35C1B0748D4E30608D52A4B1868B6
:100A70001023026893839533C35C5B0740D423063D
:100A80000BD50022274B1A60234B1868802302687D
:100A900093832533C35C9B0635D4E3050CD5002234
:100AA000204B1A601C4B186880235B0002689383FC
:100AB0005B3BC35C5B0629D4A3050DD50022194B13
:100AC0001A60154B186880239B00026893835C3B77
:100AD000FF3BC35C7F2B1CD803B03CBC90469946BF
:100AE000A246AB46F0BD7B683800984798E783681C
:100AF0009847A3E743699847ABE703699847B3E78B
:100B0000C3689847BBE783699847C6E7C3699847B6
:100B1000D2E7036A9847DFE7380000201815000085
:100B20003D140000480000204C000020C0000020C0
:100B3000FF3F00F023002E339B00424612689B5873
:100B40009E494246106898470134072CC4D0630080
:100B5000DB5B334203D04A461268126893832B4210
:100B6000F2D0062CE6D1964B1B891B09802252003D
:100B70001340924A1360DDE73C005934FF340023F0
:100B8000012294465F329146503A92460D3A93467E
:100B9000B8462F00B9E02A003D00474690465B0169
:100BA000ED180823FF33EB5C5B0616D540220823C3
:100BB000FF33EA54883BFF3B42461343814A93711B
:100BC00060230B4200D187E7019B1B01FB18E03338
:100BD0001B687C49380098477EE70823FF33EB5CAD
:100BE0009B06EDD520220823FF33EA54754B42467D
:100BF0009A71E5E73D004746019A130008335B010F
:100C0000ED181023EB71BB186133FF331B78DB0643
:100C100000D461E710005201694B9B185B689B048C
:100C20009B0C68490B800301FB18DC331B684046B2
:100C3000984751E72A003D00474690465B01ED1872
:100C40000823FF33EB5C9B071ED502220823FF33EA
:100C5000EA545C48883BFF3B424613438371019B47
:100C60005A01574B9B1810335B689B049B0C4380C5
:100C70008B0700D130E7019B0D331B01FB185B682C
:100C800050493800984727E70823FF33EB5CDB0720
:100C9000EED501220823FF33EA544A4843468371C4
:100CA000019B5B01464AD21853689B049B0C03804E
:100CB00053681B019B0C8380DAE70822FF329A5CA1
:100CC00052076ED504200822FF3298540198420141
:100CD0003B4B9B189B7A9B0705D5394B9B189A7AFF
:100CE000022082439A72374B42469A71019B083325
:100CF0005B013A6894466344DB79DB0751D5EBE648
:100D000001330134082B00D1E6E6DDB20193320055
:100D10001A4161461142F3D01A0008325201BA1842
:100D2000D279D2B2217A114020780140484610424F
:100D300000D030E75046104200D05BE758461042E2
:100D400000D077E70C201042DAD02A003D00474659
:100D500090465B01EB180822FF329A5C1207ACD573
:100D600004380822FF32985401984201144B9B1812
:100D70009B7E9B0705D5124B9B189A7E02208243CF
:100D80009A7680235B42424613430E4A9371019B3D
:100D900008335B013A6894466344DB799B0700D5CE
:100DA0009AE60C230B4200D196E6019B1B01FB182F
:100DB000D8331B680349380098478DE63C00002073
:100DC000C00000204000002070B50022104B1A70B7
:100DD000002310491F25104E0D4C0AE00D4908E074
:100DE00023780133DBB223700F2B10D800211F2B87
:100DF000F4D9280018400122824008691042EFD03F
:100E00000A619B009B59002BEAD09847E8E770BD28
:100E1000C00100200018004074000020704700004E
:100E20000C4B1B68002B06D1EFF31083002B07D06F
:100E30000022094B1A70074A136801331360704788
:100E400072B6BFF35F8F0022044B1A700132024B5F
:100E50001A70F0E754000020580000200000002025
:100E6000084B1A68013A1A601B68002B09D1064B1F
:100E70001B78002B05D00122044B1A70BFF35F8F43
:100E800062B6704754000020580000200000002087
:100E900070B50C490B6A04788578407801221040BF
:100EA00080014026B34303432A40D201802083437C
:100EB00013430322224012020348034013430B62F0
:100EC00070BDC04600080040FFFCFFFF082803D8A3
:100ED0008000254B1B589F46172044E0234A136A85
:100EE00002210B43136200203DE0204A9369022156
:100EF0000B439361002036E01C4A138A02210B4306
:100F0000138200202FE0194A938A02210B43938217
:100F1000002028E016490B68022213430B60134B94
:100F20009A8419000E32CB681A42FCD0104A91689C
:100F30000E4BD96252689A6200229A8419001032CC
:100F4000CB681A42FCD00A4B1B689BB2074A9384B9
:100F5000002008E0054944228B5C022003438B54A7
:100F6000002000E000207047281500000008004025
:100F70005C00002030B585B0C222D2001A4B9A60C6
:100F80001A4A53681E218B43536001236A4613702B
:100F90000024174DE0B26946A8470134252CF9D149
:100FA00003A800244470012585700470114B9847F4
:100FB0000620114B9847114B9847114B1C725C72DD
:100FC0009C72DC7201956B465C7006236A46137056
:100FD00014725472694600200A4B984700200A4B4D
:100FE000984705B030BDC0460008004000400041B1
:100FF000B9110000910E0000CD0E00000D10000090
:101000000004004031100000E9100000064A936916
:1010100008210B4393610122044B1A7019000B78CD
:101020001342FCD17047C04600040040000C004051
:1010300070B5060004000D782D0205434B78002B97
:1010400002D08023DB021D434B7A002B02D0802389
:101050001B031D434868012810D9431E184234D190
:10106000022830D90223002201325B009842FBD8CB
:1010700012023243140080235B031D430B7A002BC2
:1010800002D080239B031D43134A53785BB2002B8D
:10109000FBDB124B9847124B1E700F4A53785BB222
:1010A000002BFBDB0C4B9C601A0053785BB2002BCF
:1010B000FBDB094A5368802149020B401D43556000
:1010C000084B984770BD0022D2E7040234438023C6
:1010D0009B021D43D2E7C046000C0040210E0000D9
:1010E000080C0040610E000010B504000B4A537854
:1010F0005BB2002BFBDB0A4B98470A4B1C70074A7C
:1011000053785BB2002BFBDB044A516880235B02FF
:101110000B435360044B984710BDC046000C004081
:10112000210E0000040C0040610E000010B5040008
:10113000064B9847064B1C70064A53888021C9010C
:101140000B435380044B984710BDC046210E00004E
:10115000020C0040000C0040610E000010B50400BD
:101160000F4B98470F4B1C700F4A53881B05180FE5
:1011700053880E490B40538053880D490B405380D0
:1011800011008022D2014B881342FCD106494A88C3
:1011900003020648024013434B80064B984710BD9C
:1011A000210E0000020C0040000C0040FFF0FFFF89
:1011B000FFBFFFFF610E000010B50C78240204434E
:1011C000024B9847A4B2024B5C8010BD5D11000039
:1011D000000C004030B5D378002B35D11378802B2C
:1011E00029D01B0680246402234354780225AC4393
:1011F00006D19478002C20D18024A402234341609E
:101200005478013C012C1CD90D042D0CA024E405BC
:101210002C431C4384620D0CD02424062C431C4315
:101220008462D478002C22D15B031CD59378012BE7
:101230001ED0416117E00023D7E7C024E402234316
:10124000DDE70D4C2340DFE741600C04240CA023B4
:10125000DB05234383620C0CD0231B0623438362EC
:10126000D378002B03D15378013B012B02D930BD39
:101270008161F8E78160FAE7FFFFFBFF10B50A0024
:10128000C1090023002904D14309DB0105498C462B
:1012900063441F242040012181401800024B9847DD
:1012A00010BDC04600440041D51100007047000049
:1012B00010B5054B9847054B9847054B9847054B8C
:1012C0009847054B984710BD750F00001D0E000094
:1012D000AD1200002D010000AD120000FEE700007D
:1012E000F8B52A4A2A4B9A4211D01A00294B9A4241
:1012F0000DD2294A03339B1A9B0801339B0000221D
:10130000234822498C58845004329A42FAD1234A05
:10131000234B9A420AD2D34321495B1803218B43C2
:1013200004339B18002102C29342FCD11D4AFF21C5
:101330001D4B8B439360FD3990235B001B4AD150BA
:101340001B4AD3780325AB4302242343D370D378BD
:101350000C27BB4308263343D370164B987B3022AF
:101360009043202210439873997BB943314399737A
:101370009A7BAA4322439A730F4A536880210B43F6
:1013800053600E4B98470E4B9847FEE76C150000D4
:1013900000000020040000200400002004000020C1
:1013A0008002002000ED00E000000000007000411D
:1013B0000050004100480041004000417D14000001
:1013C000C513000070B5AAB0154B9847154E01AC77
:1013D00031002000144B98470623E372134A6260E1
:1013E00002222276F832E2610121623AA154A36519
:1013F000023BA3670E4D2200310028000D4B984799
:101400002B68022299680A42FCD11A6802210A4319
:101410001A60094B08221A60802212051A60FEE742
:10142000B1120000002400422D020000A60E0000B0
:1014300000020020790300000844004141420840B6
:101440001C2101231B04984201D3000C10391B0AF4
:10145000984201D3000A08391B09984201D30009B8
:10146000043902A2105C401A7047C0461B1C1D1DA7
:101470001E1E1E1E1F1F1F1F1F1F1F1F70B50026B1
:101480000C4D0D4C641BA410A64209D1002600F09F
:101490005DF80A4D0A4C641BA410A64205D170BD2C
:1014A000B300EB5898470136EEE7B300EB58984786
:1014B0000136F2E7581500005815000058150000D5
:1014C0005C150000000100000002000000040000A4
:1014D000040202001A1A1B00FFFFFF00FFFFFF00BB
:1014E000FFFF0000080402000100000002000000ED
:1014F00004000000080000000010000000200000B0
:101500000040000000800000000001000000020018
:1015100000000400000008000400080070008000C3
:101520000100000100020000F80E0000D80E0000CB
:10153000D80E0000640F0000EA0E0000060F000045
:10154000DC0E0000140F0000540F0000F8B5C04678
:10155000F8BC08BC9E467047DD000000F8B5C046E8
:0C156000F8BC08BC9E467047B5000000B7
:04156C00010000007A
:04000003000012E106
:00000001FF
